:020000040800F2
:1000000088080020B5010008B1200008DD1B0008A9
:10001000AD2000084D030008F92200080000000090
:10002000000000000000000000000000E1220008C5
:100030005103000800000000CD210008E52200085F
:10004000CF010008CF010008CF010008CF01000850
:10005000CF010008CF010008CF010008CF01000840
:10006000CF010008CF010008CF010008CF01000830
:10007000CF010008CF010008CF010008CF01000820
:10008000CF010008CF010008CF010008CF01000810
:10009000CF010008CF010008CF010008CF01000800
:1000A000CF010008CF010008CF010008CF010008F0
:1000B000CF010008CF010008ED220008CF010008A1
:1000C000CF010008CF010008CF010008CF010008D0
:1000D000CF010008CF010008CF010008CF010008C0
:1000E000CF010008CF010008CF01000800F002F89E
:1000F00000F050F814A696E8000CB244B344DA4578
:1001000001D100F047F8BAE80F000FA696E83000DA
:10011000A5EB040504EB0607AAEB0704A7F101070A
:100120004FEA15154FEA3414A4F10104AC4201D38F
:1001300000F030F813F0010F18BFFB1A43F0010371
:1001400000F001F8DBE71847A0270000C0270000F7
:10015000103A24BF78C878C1FAD8520724BF30C8F3
:1001600030C144BF04680C60704700007047000055
:100170000023002400250026103A28BF78C1FBD8B0
:10018000520728BF30C148BF0B6070471FB51FBD65
:1001900010B510BD00F0A0F81146FFF7F7FF02F010
:1001A00031F900F0BEF803B4FFF7F2FF03BC00F032
:1001B000C5F800000948804709480047FEE7FEE708
:1001C000FEE7FEE7FEE7FEE7FEE7FEE7FEE7FEE707
:1001D00004480549054A064B70470000E92200081B
:1001E000ED00000888020020880800208804002014
:1001F00088040020431A28BF9A4240F23B801044F2
:10020000114410F0030F1EBF11F8013D521E00F8FB
:10021000013D10F0030F7FF4F6AF103AC0F00A80F2
:1002200010B531E9185020E91850103ABFF4F9AF71
:10023000BDE81040530724BF31E9081020E9081039
:1002400044BF51F8043D40F8043D12F0030F08BFCD
:100250007047D20728BF31F8023D48BF11F8012C82
:1002600028BF20F8023D48BF00F8012C70477047B6
:100270007047704710B5203AC0F00B80B1E81850B5
:10028000A0E81850B1E81850A0E81850203ABFF480
:10029000F5AF5FEA027C24BFB1E81850A0E818501F
:1002A00044BF18C918C0BDE810405FEA827C24BF73
:1002B00051F8043B40F8043B08BF7047D20728BF01
:1002C00031F8023B48BF11F8012B28BF20F8023B50
:1002D00048BF00F8012B7047754600F02BF8AE467A
:1002E00005006946534620F00700854618B020B542
:1002F000FFF76EFFBDE820404FF000064FF000070B
:100300004FF000084FF0000BAC46ACE8C009ACE879
:10031000C009ACE8C009ACE8C00921F007018D466E
:10032000704710B50446AFF300802046BDE810408A
:10033000FFF739BF00487047180000200149182016
:10034000ABBEFEE72600020070470000FEE700009B
:1003500070470000EFF3108072B600BFFEE70000A8
:100360002DE9F04F82B00E68002E00F0FD8041F2C2
:100370000042C4F20102042340F2004E904208BF42
:1003800003234FF6FF7CC4F2010E009300240123E7
:10039000C1F2100C4FF0000A4FF0000944E000BF1A
:1003A000012704F00C030F229A402BEA020207FAFD
:1003B00003F34FEA9A051A4346F825204E6840F2A7
:1003C0000C45F202DEF8082054BF22EA080242EA95
:1003D0000802C4F20105CEF808202A68B30254BF0F
:1003E00022EA080242EA08022A60B303DEF8042087
:1003F00054BF22EA080242EA0802F303CEF80420BE
:10040000DEF800204FF0010354BF22EA080242EA5E
:100410000802CEF800200E680AF1010A36FA0AF244
:1004200004F1040400F0A08003FA0AFB16EA0B08AA
:10043000F1D04E68664511DC122E55D8DFE806F083
:10044000340A4448545454545454545454545454F2
:10045000544C5000D1F80C9046E000BF4FF6FF72AC
:10046000C1F2210296420FDC0022C1F21102964233
:100470001AD00022C1F21202964215D00022C1F217
:100480002102964210D02FE00022C1F222029642B1
:100490000AD00022C1F23102964205D00022C1F2F8
:1004A0003202964220D100BF8A684AB1012A14BFA5
:1004B000C0F814B0C0F810B04FF0080914E000BF45
:1004C0004FF0040910E000BFCA6802F108090BE010
:1004D0004FF0000908E000BFCA6802F1040903E018
:1004E000CA6802F10C0900BF22460646B8F5807FB3
:1004F00024BF203A043637680F25954027EA0505C2
:1005000009FA02F22A433260CA79D2067FF583AF34
:1005100041F21803C4F202031A68AEF57E7642F087
:1005200001021A601A6802F001020192019A2AF08F
:10053000030256F802B040F60002C4F201029042F3
:1005400010D040F60042C4F2010290423FF428AFBE
:1005500041F20002C4F20102009F904208BF02274C
:100560001FE700BF00271CE702B0BDE8F08F0000C6
:100570008068084018BF012070470000002A08BFAB
:10058000090401617047000040F28020C2F20000BF
:100590000068704740F2000040F28021C2F2000083
:1005A000C2F2000100780A68104408607047000039
:1005B00080B542F20000C4F20200016841F010016F
:1005C0000160032000F08CF80F2000F005F800F027
:1005D00027F8002080BD000070B540F20006C2F28E
:1005E000000640F214013278C2F200014FF47A732F
:1005F0000968B3FBF2F20446B1FBF2F1084600F0E1
:1006000089FB0F2C4FF0010508D838B94FF0FF30A7
:1006100021460022002500F037F87460284670BD9E
:1006200082B041F21800C4F202000168022241F0D7
:1006300001010160016801F0010101910199416826
:1006400041F080514160406800F080500090009877
:100650000420C4F20100016862F31A61016002B073
:1006600070470000002848BF704700F01F010122BA
:1006700002FA01F11C2202EAD0004EF20012CEF280
:10068000000281507047000010B54EF60C5CCEF2AF
:10069000000CDCF80030C3F3022E8EF00704042CAB
:1006A00028BF0424BEF103034FF0FF3E0EFA04F40A
:1006B00038BF0023A14399400EFA03F39A43114334
:1006C00000F00F0200F160430901043A03F56443AE
:1006D0006244002848BF02F10C03197010BD0000ED
:1006E0004EF60C51CEF200010A684FF6FF031A4095
:1006F00060F30A2242F0806040F0FD7008607047AD
:10070000002804BF012070472DE9F04381B042F278
:100710000008C4F202080446D8F800000D4600F0B4
:10072000070088420CD2D8F8000020F007002843C8
:10073000C8F80000D8F8000000F00700A8426CD10B
:10074000206841F204098107C4F2020917D5410764
:1007500005D5D9F8001041F4E061C9F8001001078F
:1007600005D5D9F8001041F46051C9F80010D9F846
:100770000010A26821F0F0011143C9F80010C00771
:1007800042D1D8F8000000F00700A8420CD9D8F8F0
:10079000000020F007002843C8F80000D8F8000047
:1007A00000F00700A84238D12068410707D5D9F8E2
:1007B0000010E26821F4E0611143C9F8001000075D
:1007C00008D5D9F80000216920F4605040EAC10042
:1007D000C9F80000D9F8002002F00C00082841F206
:1007E0000020C0F27A0051D142F6D803C2F383410F
:1007F000C0F60003595CD2033CD440F60010C0F2AE
:100800003D00484342E000BF606802280AD001284A
:100810002AD159F8041C890308D4012001B0BDE88D
:10082000F08300BF59F8041C8901F6D5D9F80010EF
:1008300021F003010843C9F80000FFF7A5FE0646B2
:1008400041F28837D9F80000616800F00C00B0EB85
:10085000810F96D0FFF798FE801BB842F2D9032093
:1008600001B0BDE8F08300BF59F8041C8907D4D556
:10087000DCE700BFD9F8002042F6D603C2F34042BD
:10088000C0F600039A5C4843B0FBF2F0D9F80010C0
:1008900042F6BE02C1F30311C0F60002515C40F201
:1008A000140220FA01F140F20400C2F200000068D4
:1008B000C2F200021160FFF78FFE002001B0BDE818
:1008C000F083000040F2140041F20401C2F2000083
:1008D000C4F202010068096842F6CE02C1F30221A7
:1008E000C0F60002515CC8407047000040F214009E
:1008F00041F20401C2F20000C4F20201006809687A
:1009000042F6CE02C1F3C221C0F60002515CC840DB
:1009100070470000002804BF012070472DE9F04116
:1009200082B00446007841F20006C007C4F2020615
:100930000CD0706800F00C00042840F08180306812
:10094000800303D56068002800F04E81207880077E
:100950001BD5706810F00C0F09D0706800F00C0007
:10096000082840F08B807068C00300F187803068F1
:10097000800703D52069012840F03681306861691D
:1009800020F0F80040EAC10030602078000713D45E
:10099000207840072CD4E569002D00F02081706894
:1009A00000F00C00082840F0AF80012D40F00C81D1
:1009B000012002B0BDE8F081A069002800F08C8021
:1009C0000020C4F242200121C0F88014FFF7DCFDB2
:1009D000054600BF706A800700F1BA80FFF7D4FDBA
:1009E000401B0228F6D9032002B0BDE8F08100BF09
:1009F000F0695FEAC00808D4F06940F08050F06107
:100A0000F06900F080500090009847F20007C4F2AF
:100A100000073868C0054DD4386840F480703860ED
:100A2000FFF7B2FD054600BF3868C00542D4FFF7A6
:100A3000ABFD401B6428F7D9032002B0BDE8F0816C
:100A4000706800F00C00082803D17068C0033FF5FF
:100A500076AF6068002800F00981B0F5A02F00F0A3
:100A60001D81B0F5803F00F01D81306820F480309A
:100A70003060306820F4802017E100BF2069002832
:100A800040F20000C4F2422000F08C80012101609D
:100A9000FFF77AFD054600BF306880073FF56EAF6F
:100AA000FFF772FD401B0228F6D9032002B0BDE813
:100AB000F08100BFE068002800F09A80052800F06F
:100AC000B180012800F0B280306A20F0010030626D
:100AD000306A20F00400ACE00020C4F24220002183
:100AE000C0F88014FFF750FD054600BF706A80070C
:100AF0007FF54EAFFFF748FD401B0228F6D90320D3
:100B000002B0BDE8F08100BF0027C4F242270020F8
:100B10003866FFF739FD022D05460DD1306880019A
:100B200040F1D680FFF730FD401B02284FF0030054
:100B3000F4D902B0BDE8F081306880014FD5FFF7ED
:100B400023FD401B02284FF00300F5D9F1E700BF59
:100B500040F21400C2F20000006844F6D351C1F222
:100B60006201A0FB0101480A019000BF00BF01988B
:100B7000411E002801913FF40BAF00BF0198411EB8
:100B8000002801913FF404AF00BF0198411E0028E6
:100B900001913FF4FDAE00BF0198411E0028019174
:100BA000E4D1F5E600210160FFF7EEFC054600BF49
:100BB000306880077FF5E9AEFFF7E6FC401B0228AE
:100BC0004FF00300F4D9B4E77068216A00F4803272
:100BD0008A4209D1616A00F47010884204D1002071
:100BE00002B0BDE8F08100BF012002B0BDE8F08195
:100BF000306A20F001003062306A20F00400306278
:100C0000FFF7C2FC054641F2883700BF306A800713
:100C100022D5FFF7B9FC401BB8424FF00300F5D9CD
:100C200087E700BF306A40F004003062306A40F06D
:100C300001003062FFF7A8FC054641F2883700BF8B
:100C4000306A800708D4FFF79FFC401BB842F7D9F1
:100C5000032002B0BDE8F081B8F1000F3FF59BAE74
:100C6000F06920F08050F06195E600BF306820F414
:100C700080303060306820F480203060FFF784FCE2
:100C8000054600BF306880037FF560AEFFF77CFC4F
:100C9000401B64284FF00300F4D94AE7306840F461
:100CA00080203060306840F480303060FFF76CFCAA
:100CB000054600BF306880033FF548AEFFF764FC8F
:100CC000401B6428F6D9032002B0BDE8F08100BFC4
:100CD000206AB0F5803F05D17168A26821F4003127
:100CE000114371607168626A21F474111143084301
:100CF000706001203866FFF747FC044630688001C9
:100D00003FF56DAFFFF740FC001B02284FF00300DA
:100D1000F4D90EE7411E0020B0EB116F1CBF01207B
:100D200070474EF21002CEF2000251604EF623518F
:100D3000CEF20001F0230B70072190601160704724
:100D4000704700007047000090F83C20012A04BF63
:100D500002207047B0B501F108053CCDD1E900CEC5
:100D600023F47C5322F470521A432EF4F0431A43B6
:100D70002CF4E0431A4324F4C0431A432A43C969BC
:100D800022F48042036811435964002180F83C102A
:100D9000BDE8B0400846704790F83C20012A4FF06B
:100DA000020236D010B580F83D200268D2F804E087
:100DB000D2F808C00C682EF07003234340F2FF7491
:100DC000C4F20004A24253600ADCB2F1804F13D097
:100DD00040F20043C4F200039A420DD011E000BF7C
:100DE00042F60043C4F201039A4205D040F60003E4
:100DF000C4F200039A4204D149682CF080031943DD
:100E000091600121002280F83D1080F83C20BDE86F
:100E10001040104670470000002804BF01207047B2
:100E200010B5044690F83D0028B9002084F83C0035
:100E3000204600F067F8022084F83D00206840F268
:100E4000FF730268C4F2000342F6004C9842C4F2F9
:100E5000010C15DCB0F1804F1AD040F20041C4F211
:100E60000001884214D0984218DCB0F1804F1DD0A8
:100E700040F20041C4F20001884217D01AE000BFDE
:100E8000604505D040F60001C4F200018842EAD175
:100E9000A16822F070020A439842E6DD604505D061
:100EA00040F60001C4F20001884203D1216922F416
:100EB00040720A43A36922F08001D4F804E0E2689A
:100EC000194360450160C262C0F828E002D161693F
:100ED000CCF8301001214161002084F8461084F8DC
:100EE0003E1084F83F1084F8401084F8411084F8D4
:100EF000421084F8431084F8441084F8451084F8B4
:100F00003D1010BD80B586B0006840F2FF71C4F29C
:100F1000000188424FF00001CDE90411CDE9021132
:100F200020DCB0F1804F39D040F20041C4F2000122
:100F3000884255D141F21800C4F20200416841F0E4
:100F400002014160416801F00201019101990168CB
:100F500041F004010160006800F004000190019874
:100F6000C02032E040F60001C4F20001884239D0CE
:100F700042F60041C4F20101884231D141F2180029
:100F8000C4F20200016841F400610160006800F4ED
:100F900000600190019806B080BD00BF41F21800CA
:100FA000C4F20200416841F001014160416801F072
:100FB000010101910199016841F00401016000689B
:100FC00000F004000190019803200290002003909B
:100FD000049040F60000C4F2010002A9FFF7C0F936
:100FE00006B080BD41F21800C4F202004168002240
:100FF00041F0040141604068002100F004000190CC
:1010000001981E20FFF740FB1E2006B0BDE880407F
:10101000FFF728BB90F83D1001291CBF0120704745
:10102000022180F83D10006840F2FF72C168C4F2EE
:101030000002904241F00101C16009DCB0F1804F33
:1010400012D040F20041C4F2000188420CD012E0FC
:1010500042F60041C4F20101884205D040F6000189
:10106000C4F20001884206D1816801F00701062917
:1010700004BF00207047016841F0010101600020B9
:101080007047000090F83C20012A4FF0020200F067
:10109000C58080B580F83D20D0F800C04FF677724B
:1010A000DCF8083023EA0202CCF808200B684F2B4A
:1010B00028DC1F2B44DD202B45D0302B43D0402B88
:1010C00040F0AE80D1F804E0C968DCF82030DCF8EC
:1010D000202022F00102CCF82020DCF8182022F099
:1010E000F00242EA011123F00A0242EA0E02CCF8B1
:1010F0001810CCF82020DCF8081041F0470121F04E
:10110000300180E06F2B27DDB3F5005F48D0B3F5E9
:10111000805F7AD0702B40F08380D1E901E3C96809
:10112000DCF8082043EA0E0322F47F4243EA01215F
:101130001143CCF80810DCF8081041F0770162E0A8
:101140000BB1102B6CD1DCF8081021F070011943A1
:1011500041F0070157E000BF502B35D0602B5FD125
:10116000D1F804E0C968DCF82030DCF8202022F057
:101170001002CCF82020DCF8182022F4704242EA59
:10118000013123F0A00242EA0E12CCF81810CCF87C
:101190002020DCF8081041F0670121F0100132E056
:1011A000D1E901E3C968DCF8082043EA0E0322F420
:1011B0007F4243EA01211143CCF80810DCF8081003
:1011C00041F480411FE000BFD1F804E0C968DCF8B9
:1011D0002030DCF8202022F00102CCF82020DCF8BE
:1011E000182022F0F00242EA011123F00A0242EA3A
:1011F0000E02CCF81810CCF82020DCF8081041F0D2
:10120000570121F02001CCF808100022012180F8BC
:101210003D10002180F83C10BDE88040104670472A
:101220000122F3E77047000090F83C30012B04BF27
:10123000022070474FEAB202032A23D8F0B5DFE854
:1012400002F00327476500BF0368D1E900C5D1F864
:101250000CE01C6A1A6A40F2FF7722F001021A625F
:101260001A4652F8186FC4F20007BB4272DCB3F1A1
:10127000804F7BD040F20047C4F20007BB4275D0DC
:1012800090E000BF0121002280F83C200846704712
:101290000368D1E900E6D1E902C11C6A1A6A360284
:1012A00022F010021A621A4652F8185F4FF2FF0736
:1012B000BE4325F4734561F30F3624F0A0040EF00D
:1012C0000A0746EA050144EA071711601F623AE07F
:1012D0000768D1E900C5D1E902313C6A3A6A61F395
:1012E000071522F480723A623A4652F81C6F26F0D3
:1012F000F30645EA06014FEA5C0666F349241160ED
:101300003C62116821F00C01116040E00368D1E9F2
:1013100000E6D1E902C11C6A1A6A360222F4805240
:101320001A621A4652F81C5F4FF2FF07BE4325F4BB
:10133000734561F30F364FEA5E0746EA050167F32E
:101340004D3411601C6211684FEA0C2321F4406196
:1013500011601CE042F60047C4F20107BB4205D011
:1013600040F60007C4F20007BB421BD126F003067B
:10137000354324F00A070CF00A066EF307153744CC
:101380009D611F629F6927F00C079F618B68116840
:10139000194311600021BDE8F040002280F83C2094
:1013A0000846704746F00105E3E70000002804BF47
:1013B0000120704710B5044690F83D0028B9002080
:1013C00084F83C00204600F067F8022084F83D00D5
:1013D000206840F2FF730268C4F2000342F6004C3A
:1013E0009842C4F2010C15DCB0F1804F1AD040F2E3
:1013F0000041C4F20001884214D0984218DCB0F1D8
:10140000804F1DD040F20041C4F20001884217D045
:101410001AE000BF604505D040F60001C4F20001AB
:101420008842EAD1A16822F070020A439842E6DDC0
:10143000604505D040F60001C4F20001884203D1A6
:10144000216922F440720A43A36922F08001D4F892
:1014500004E0E268194360450160C262C0F828E018
:1014600002D16169CCF8301001214161002084F87B
:10147000461084F83E1084F83F1084F8401084F839
:10148000411084F8421084F8431084F8441084F822
:10149000451084F83D1010BD7047000010B501687C
:1014A00004460869800744BFC8685FEA807039D481
:1014B0000869400744BFC8685FEA40703ED40869C5
:1014C000000744BFC8685FEA007045D40869C006D9
:1014D00044BFC8685FEAC0604AD40869C0071CBF3F
:1014E000C8685FEAC07051D10869000644BFC86887
:1014F0005FEA006052D40869400644BFC8685FEAEA
:10150000406053D40869800646BFC8685FEA8060BF
:1015100010BD6FF0200220460A61BDE81040FFF7C1
:1015200011BC00BF6FF002000861012020778869BC
:10153000800743D02046FFF775FE45E06FF00400BA
:10154000086102202077886910F4407F40D020464F
:10155000FFF768FE42E000BF6FF00800086104205A
:101560002077C86980073DD02046FFF75BFE3FE04B
:101570006FF01000086108202077C86910F4407FE0
:101580003AD02046FFF74EFE3CE000BF6FF001006E
:101590000861204600F024FA2168A5E76FF080007A
:1015A00008612046FFF7CCFB2168A4E76FF04000FC
:1015B0000861204600F01EFA2168A3E7204600F0EB
:1015C00025F8204600F09CF92168002020776FE77D
:1015D000204600F01BF8204600F092F92168002018
:1015E00020776CE7204600F011F8204600F088F9DB
:1015F00021680020207769E7204600F007F82046A0
:1016000000F07EF921680020207766E7704700002F
:1016100090F83C30012B04BF022070474FEAB20221
:10162000032A3DD82DE9F043DFE802F002407CB602
:10163000036842F600461D6A1A6AC4F2010622F0E7
:1016400001021A621A465C6852F818CFB3428E68DB
:10165000D1F800E025F0020545EA06050CD1CE6878
:10166000D1E9057824F4407425F00C0526F0040631
:101670003C43354344EA08042CF0730747EA0E075D
:101680005C609F614F6809695F631D629F6947F0F5
:1016900008079F619F6927F004079F61ACE000BFC6
:1016A0000121002280F83C2008467047036842F67A
:1016B00000461D6A1A6AC4F2010622F010021A627C
:1016C0001A46D3F804C052F8184FB3428E68D1F8C6
:1016D00000E025F0200545EA06150FD1CE68D1E9D6
:1016E00005986FF0400725F0C00507EA0616354358
:1016F0002CF4406748EA090647EA860C24F4E644DD
:1017000044EA0E27C3F804C09F614F6809699F63CC
:101710001D629F6947F400679F619F6927F4806796
:101720009F6168E0036842F600461D6A1A6AC4F2C7
:10173000010622F480721A621A46D3F804C052F8E5
:101740001CEFB3428E680C6825F4007545EA062547
:101750000FD1CE68D1E90598360240F2FF4725F453
:101760004065BE4335432CF4405748EA090647EA32
:10177000061C2EF073072743C3F804C0DF614F68CF
:101780000969DF631D62DF6947F00807DF61DF6910
:1017900027F00407DF612FE0036842F60047D3F823
:1017A00020C01A6AC4F2010722F480521A621A4653
:1017B0005C6852F81C5FD1F800E08E68BB4204D12F
:1017C0004F6924F4804444EA87142CF4005747EA14
:1017D000063725F4E64646EA0E265C60DE614E6872
:1017E00009691E641F62DF6947F40067DF61DF6912
:1017F00027F48067DF610902136819431160002133
:10180000BDE8F043002280F83C2008467047000005
:10181000002804BF0120704710B5044690F83D0031
:1018200028B9002084F83C00204600F067F8022028
:1018300084F83D00206840F2FF730268C4F20003A0
:1018400042F6004C9842C4F2010C15DCB0F1804F16
:101850001AD040F20041C4F20001884214D09842EC
:1018600018DCB0F1804F1DD040F20041C4F20001FD
:10187000884217D01AE000BF604505D040F600014D
:10188000C4F200018842EAD1A16822F070020A4342
:101890009842E6DD604505D040F60001C4F2000143
:1018A000884203D1216922F440720A43A36922F0DD
:1018B0008001D4F804E0E268194360450160C26227
:1018C000C0F828E002D16169CCF8301001214161F3
:1018D000002084F8461084F83E1084F83F1084F805
:1018E000401084F8411084F8421084F8431084F8C2
:1018F000441084F8451084F83D1010BD7047000076
:101900007047000041B1082910D0042914BF00F12C
:10191000410200F13F020BE090F83E20012A1CBF7B
:1019200001207047022280F83E2013E000F14002BF
:101930001278012A1CBF012070470222082907D013
:10194000042914BF80F8412080F83F2002E000BF46
:1019500080F84020006801F01F010122036A8A40DC
:1019600023EA02010162036A42F64441C4F2010122
:101970001A43A1F14403984202620FD040F2FF7172
:10198000C4F20001884213DCB0F1804F1CD040F259
:101990000041C4F20001884216D01AE00A6842F4FD
:1019A00000420A6040F2FF71C4F200018842EBDDA0
:1019B00042F60041C4F20101884205D040F6000120
:1019C000C4F20001884204D1816801F007010629B0
:1019D00003D0016841F00101016000207047000060
:1019E00040F2A811C2F20001884218BF704700F00F
:1019F00061BB000070470000002804BF0120704751
:101A000010B5044690F8410028B9002084F8400041
:101A1000204600F063F8242084F841002068D4E9CF
:101A20000212C36823F40053C360036923F44053D4
:101A30001A430261D4E904231143C268194341F2F5
:101A40000C639A431143C1604169A26921F440715A
:101A5000114343F60002C4F201029042416103D0F7
:101A6000FEF730FF02E000BFFEF740FFD4E900239D
:101A7000192148439900B0FBF1F048F21F5CC5F210
:101A8000EB1CA0FB0C314FF69C734909C0F6FF73A9
:101A900001FB0300322303EB0010A0FB0C03F0203A
:101AA00000EA531000EB0110C3F3431108449060A7
:101AB0001069202120F490401061506920F02A0024
:101AC0005061D06840F40050D0600020606484F819
:101AD000411084F84210606310BD000070B586B0FC
:101AE000006844F20041C4F20001002688420596D5
:101AF000CDE90366029641D043F60001C4F201012C
:101B0000884268D141F21800C4F20200016802ADB7
:101B100041F480410160016801F480410191019923
:101B2000016841F0080101600068294600F00800E2
:101B3000019001984020029002200390032005901C
:101B400040F60000C4F2010000F580642046FEF774
:101B500007FC802002900020CDE9030020462946A2
:101B6000FEF7FEFB0420C4F20100016841F0E061D1
:101B700041F00401016006B070BD00BF41F21800E1
:101B8000C4F20200416840F6000441F400314160B3
:101B90004168C4F2010401F4003101910199016826
:101BA00002AD41F0040101600068294600F0040024
:101BB00001900198042002900220039003200590D8
:101BC0002046FEF7CDFB0820CDE902062046294637
:101BD0000496FEF7C5FB06B070BD0000FEE70000EE
:101BE0002DE9F04784B041F21800C4F20200016808
:101BF00040F6004941F0100101600168C4F201099A
:101C000001F0100100910099016809F5806641F02A
:101C1000200101600168002201F02001009100997B
:101C200001684FF4005441F004010160016800278D
:101C300001F0040100910099016841F00801016080
:101C400000684FF4005100F0080000900098304602
:101C5000FEF794FC48464FF4704100224FF4704860
:101C6000FEF78CFC6D46009401244FF0020A3046CA
:101C70002946CDE90147CDF80CA0FEF771FB3020D5
:101C8000CDE90007A9F5806029460294FEF768FBBC
:101C900040F61870CDE90007484629460294FEF741
:101CA0005FFB48462946CDE90084CDE9027AFEF77C
:101CB00057FB2020CDE90007484629460297FEF74A
:101CC0004FFB04B0BDE8F08770B59CB042F600450C
:101CD00040F2D000C4F201050021C2F200004F2200
:101CE00040F2E7331691CDE914111191CDE90F11AE
:101CF000CDE90D11CDE90B11CDE90911CDE90711A0
:101D0000CDE90511CDE90311CDE90111C0E900527A
:101D1000C0E90213C0E904118161FFF77DF80028D2
:101D200018BFFEF717FB4FF48050139040F2D0001D
:101D3000C2F2000013A9FFF7A5F9002818BFFEF7AB
:101D400009FB40F2D000C2F20000FFF761FD00285D
:101D500018BFFEF7FFFA40F2D0000024C2F20000E4
:101D600010A9CDE91044FFF717F8002818BFFEF7B7
:101D7000F1FA602009904FF4FA70CDE90A0440F2BC
:101D8000D000C2F2000009A90022CDE90C44CDE93F
:101D90000E44FFF73DFC002818BFFEF7DBFA40F2C7
:101DA000D000C2F2000009A90C22FFF731FC002884
:101DB00018BFFEF7CFFA40F2D0044FF40050C2F241
:101DC00000040026069001A920460596CDE9036689
:101DD000CDE901660896FEF7B7FF002818BFFEF7A9
:101DE000B9FA20681A96A84202D01CB070BD00BF94
:101DF00041F21800C4F20200016841F004010160E0
:101E0000006818A900F00400179017984FF41060AC
:101E10001890022019901B90A5F51050FEF7A0FA1B
:101E20001CB070BD10B58AB040F218100021C2F28B
:101E300000004FF080424FF6FF730991CDE9071182
:101E4000CDE90411CDE90211CDE90011C0E900216D
:101E5000C0E9021301618161FEF7DEFF002818BFAF
:101E6000FEF778FA4FF48050069040F21810C2F254
:101E7000000006A9FFF706F9002818BFFEF76AFA66
:101E800040F21810C2F20000FFF790FA002818BFC5
:101E9000FEF760FA40F218100024C2F2000004A914
:101EA000CDE90444FEF778FF002818BFFEF752FA88
:101EB0000120CDE901040A20039040F21810C2F27B
:101EC0000000694600220094FFF7AEF9002818BF11
:101ED000FEF740FA40F21810C2F2000069460422F0
:101EE000FFF7A2F9002818BFFEF734FA0AB010BDB8
:101EF00010B58AB040F2601040F200420021C2F2F8
:101F00000000C4F200024FF6FF730991CDE90711FA
:101F1000CDE90411CDE90211CDE90011C0E900219C
:101F2000C0E9021301618161FEF776FF002818BF46
:101F3000FEF710FA4FF48050069040F26010C2F2A3
:101F4000000006A9FFF79EF8002818BFFEF702FA66
:101F500040F26010C2F20000FFF728FA002818BF14
:101F6000FEF7F8F940F260100024C2F2000004A964
:101F7000CDE90444FEF710FF002818BFFEF7EAF988
:101F80000120CDE901040A20039040F26010C2F262
:101F90000000694600220094FFF746F9002818BFA8
:101FA000FEF7D8F940F26010C2F200006946042240
:101FB000FFF73AF9002818BFFEF7CCF90AB010BDB8
:101FC00080B586B040F2A81040F600020021C2F2AF
:101FD0000000C4F20002472340F2E73C0591CDE93E
:101FE0000311CDE90011C0E90023C0E9021C016121
:101FF0008161FEF711FF002818BFFEF7ABF94FF41F
:102000008050029040F2A810C2F2000002A9FFF72F
:1020100039F8002818BFFEF79DF940F2A810C2F267
:1020200000006946FEF7B8FE002818BFFEF792F9D7
:1020300006B080BD80B540F2F01043F60001C2F258
:102040000000C4F2010100234FF00C0C4FF4E13208
:1020500080E80E00C0E90333C0E905C3C361FFF7A0
:10206000CBFC002808BF80BDBDE88040FEF772B9F8
:1020700080B540F2382044F20041C2F20000C4F2C0
:10208000000100234FF00C0C4FF4E13280E80E0009
:10209000C0E90333C0E905C3C361FFF7ADFC002805
:1020A00008BF80BDBDE88040FEF754B9FEE70000E0
:1020B000FEE700002DE9F04700F08AF840F27C05C9
:1020C00080B241F29411C2F200050E1A05F13000FF
:1020D00005F12C012422FEF78DF8D5E90C32D5E963
:1020E0000E109C19D5E9018714440C440444A6EB56
:1020F0000709002E3746EE62EE612C62C5F8249087
:1021000048BF7742002B48BF5B42002A3B4448BF90
:10211000524200291A4448BF49420028114448BF8E
:10212000404200EB010A3046C5F828A0AE6000F03E
:102130006DFA064640F208052046C2F2000500F09E
:1021400065FA0146D5E90040AD6800F077FA074628
:102150003046214600F072FA394600F0D9F90446BB
:10216000484600F053FA294600F068FA214600F08C
:10217000CFF900F02FFA04460F3000F047FA054679
:10218000504600F043FA80F00040414600F056FA15
:102190002946064600F0BCF900F01CFA0546C4F1D9
:1021A0000F0000F033FA0146304600F0B1F900F0BC
:1021B00011FA6421642DA8BF0D466428A8BF084603
:1021C0002946BDE8F04700F099B8000070470000CC
:1021D0002DE9F04140F60048C4F2010840F27C06C7
:1021E000C2F200060027404608213760FEF7C0F91A
:1021F00040B13068012440F0010040F6B83730604B
:10220000F46000E0002440461021FEF7B1F930B13F
:10221000306807F6C41740F0100001343060A8F5AC
:10222000806528462021FEF7A3F930B1306807F613
:10223000B83740F480700134306028461021FEF732
:1022400097F930B1306807F57A6740F4805001346F
:10225000306040464FF40071FEF78AF938B13068BB
:10226000013440F48030306041F288300744404609
:102270004FF48071FEF77CF938B13068013440F4D6
:102280008010306041F27070074440464FF4806126
:10229000FEF76EF938B13068013440F0807030607C
:1022A00041F66410074440464FF40061FEF760F9C0
:1022B00048B13068013440F08050306041F27C50C9
:1022C00007440020F060B8B2B0FBF4F00022C6E989
:1022D00005403169002C08BF4A1C3261BDE8F0811D
:1022E00070470000FEF756B97047000040F2A81092
:1022F000C2F20000FFF7D2B8FEE70000B0B540F22E
:102300007C02C2F20002536993B10C460546B0F15B
:10231000FF3F3BDD002D45D040F27A00C2F20000C5
:102320000021017040F27B00C2F20000012143E075
:10233000D2E903019624421EA0F1010018BF012238
:10234000B0FA80F0192940F27A014FEA5010C2F237
:102350000001B8BF6424087040F27B01C2F20001A2
:102360000A7040F27901C2F200010A7040F278016D
:10237000C2F20001087000F09BF840F2D000C2F2F7
:102380000000006844630464B0BD00BF40F27A00FE
:10239000C2F200000121017040F27B00C2F2000095
:1023A000002109E040F27B00C2F20000012101702F
:1023B00040F27A00C2F2000001700020B4F1FF3F49
:1023C0004FF0000140F27902C8BF0121012CB8BFD3
:1023D0000120C2F20002107040F27800C2F2000048
:1023E000017000F065F840F2D000C2F2000005EB89
:1023F000850100684900416304EB84014C000464DA
:10240000B0BD000090B0FEF7D3F800240120CDE964
:102410000B44CDE9094406900A904FF4E0104FF4C4
:10242000803102250F9006A8CDE90714CDE90D51A2
:10243000FEF770FA20B1EFF3108072B6FEE700BF2E
:102440000F20CDE901054FF48060CDE9040401A817
:1024500002210394FEF754F920B1EFF3108072B615
:10246000FEE700BFFFF7BCFBFFF702FEFFF7DAFC59
:10247000FFF73EFDFFF7A4FDFFF726FCFFF7DAFDAF
:1024800040F2A810C2F20000FEF7C4FD40F2D004F2
:10249000C2F20004204600210025FFF733FA20464F
:1024A0000C21FFF72FFA206845630564FEE7000062
:1024B000B0B540F27805C2F2000540F600442A7833
:1024C000C4F2010420464FF48051002A18BF0122B3
:1024D000FEF754F86A7820464FF40051002A18BFDE
:1024E0000122FEF74BF8AA7820464FF48041002ADB
:1024F00018BF0122FEF742F8EA782046002A18BFEA
:1025000001224FF40041BDE8B040FEF737B80000AB
:1025100090EA010F48BF81F0004100F16281421A48
:102520003CBF801A89184FEAD052A2EBD1534FF02A
:102530007F4C1CEA410F18BF9CEA026F00F03B8001
:102540004FF0004C4CEA00204CEA012121FA03FC38
:1025500010EB0C0C1ED202F1FF325FEA1C2040EBA4
:10256000C25038BF70471CF07F0F4FEA400C18BFB5
:10257000BCF17F4F38BF7047C3F12003994008BFBB
:1025800020F00100BCF17F4F38BF7047A0F1C04080
:1025900000F01BB94FEA3C00000A40EBC25028BFD4
:1025A0001CF0FF0F4FEA400CE6D018BFBCF17F4F84
:1025B00038BF7047EAE79CEA026F05D010EA5C0F6B
:1025C00008BF00F00040704710B500F0B8F800BF39
:1025D00064FBBE3E41000B0ED3F19E0208D950F4BD
:1025E00000034FEA032323FA02F048BF404270473A
:1025F00010B500F0A4F800BF499224800020704775
:102600006FF0004282EA20007047000010F00041A5
:1026100048BF4042B0FA80F310FA03F2C3F19D03C1
:102620000BD051EAC35101EB1220530638BF70475B
:1026300000F1010008BF20F0010070474FF47F0C4B
:102640001CEAD0121EBF1CEAD11392EA0C0F93EAC7
:102650000C0F00F0478090EA010F48BF42F48072EF
:102660004FF0004C4CEA00204CEA012102EB03023F
:10267000A0FB0113A2F50002002918BF43F00103DB
:102680005B0028BF4FEA330342EB22425FEA132C80
:102690004CEBC2502EBFBCEB436FB2F57C0F7047C2
:1026A0004FEA036CBCF1004F08BF20F00100B2F507
:1026B0007C0F38BF70470BD582F0FF0212F5803FC8
:1026C000C8BF704700F1C040D8BF00F0004070475D
:1026D00000F5000C5FEA4C0C48BF7047B0F1C040F9
:1026E00000F073B80CEAD11390EA010F48BF42F42E
:1026F0008072624538BF634504D280EA010000F071
:102700000040704710B500F01AF800BF8900013E84
:1027100000F007B800F009B85FEA410C5FEA1C6CF2
:1027200008D080EA010000F050B85FEA400C5FEA90
:102730001C6CF6D14FF00040A0F5800070470EF100
:10274000020E2EF0030E5EF8044B244204D44FEA2E
:102750004102B2F17F4F11D84FEA4003B3F17F4FEE
:102760000CD80ED14FEAD07C0CEB4C0C0CF1020CC7
:10277000B2F17F4F08BF4CEBD17C04E04FF0080C66
:1027800001E04FEAD17C0CEB4C0324FA03F404F093
:102790000704B4F1040C06D20EEB840CBDE8104023
:1027A0004CF0010C6047DFE80CF0070802024FF024
:1027B0000040A0F5800010BD0846420018BFD2F1CD
:1027C000807288BF00F0004010BDFF2141EAD05068
:1027D000C005704790EA010F48BF81F000413FF506
:1027E0009EAE421A04D882F00042A0EB02001144CF
:1027F0004FEAD052A2EBD1534FF07F4C1CEA410F6D
:1028000018BF9CEA026F4AD04FF0004C4CEA0020FF
:102810004CEA012121FA03FCB0EB0C0C0FD412F0AE
:10282000FE0F36D05FEA4C001DD5001240EBC250BF
:1028300038BF70471CF03F0F18BF70470BE05FEACE
:102840001C20A2F1010240EBC25038BF70471CF0BF
:102850007F0F18BF7047C3F12003994014BF401E7B
:1028600020F0010070474FEA1223800808BF70472C
:10287000B0FA80FCA2EB0C02CCF1280C60FA0CF050
:1028800093EA122F04BF00EBC25070474FEAC370A7
:102890007047130A5FEADC1008BF7047F6E79CEA4E
:1028A000026F04D010EA5C0F08BF0020704710B51B
:1028B000FFF745FF40DFF63E81F000407047000023
:1028C00000000000000001020304060708090000E0
:1028D00000000102030401020203040506070809BF
:1028E0000A0B0C0D0E0F1010082900080000002024
:1028F00018000000500100082029000818000020DE
:1029000070080000700100080100000010000000C5
:102910006F12033B6F12833A000070410024F400F1
:04000005080000ED02
:00000001FF
